{
  "contractName": "ProLine",
  "abi": [
    {
      "inputs": [
        {
          "internalType": "address payable",
          "name": "_govt",
          "type": "address"
        }
      ],
      "stateMutability": "nonpayable",
      "type": "constructor"
    },
    {
      "anonymous": false,
      "inputs": [
        {
          "indexed": true,
          "internalType": "uint256",
          "name": "ship_id",
          "type": "uint256"
        },
        {
          "indexed": false,
          "internalType": "string",
          "name": "shstate",
          "type": "string"
        },
        {
          "indexed": false,
          "internalType": "uint256",
          "name": "times",
          "type": "uint256"
        }
      ],
      "name": "processchange",
      "type": "event"
    },
    {
      "anonymous": false,
      "inputs": [
        {
          "indexed": true,
          "internalType": "uint256",
          "name": "ship_id",
          "type": "uint256"
        },
        {
          "indexed": true,
          "internalType": "enum ProLine.Status",
          "name": "pay",
          "type": "uint8"
        },
        {
          "indexed": false,
          "internalType": "uint256",
          "name": "times",
          "type": "uint256"
        }
      ],
      "name": "processpay",
      "type": "event"
    },
    {
      "inputs": [
        {
          "internalType": "address",
          "name": "",
          "type": "address"
        }
      ],
      "name": "Customers",
      "outputs": [
        {
          "internalType": "string",
          "name": "custname",
          "type": "string"
        },
        {
          "internalType": "uint256",
          "name": "custid",
          "type": "uint256"
        },
        {
          "internalType": "address",
          "name": "custadd",
          "type": "address"
        },
        {
          "internalType": "uint256",
          "name": "custpincode",
          "type": "uint256"
        }
      ],
      "stateMutability": "view",
      "type": "function"
    },
    {
      "inputs": [
        {
          "internalType": "uint256",
          "name": "",
          "type": "uint256"
        }
      ],
      "name": "Items",
      "outputs": [
        {
          "internalType": "uint256",
          "name": "itemid",
          "type": "uint256"
        },
        {
          "internalType": "uint256",
          "name": "itemtype",
          "type": "uint256"
        },
        {
          "internalType": "address",
          "name": "manadr",
          "type": "address"
        },
        {
          "internalType": "string",
          "name": "description",
          "type": "string"
        },
        {
          "internalType": "uint256",
          "name": "price",
          "type": "uint256"
        },
        {
          "internalType": "uint256",
          "name": "gst",
          "type": "uint256"
        }
      ],
      "stateMutability": "view",
      "type": "function"
    },
    {
      "inputs": [
        {
          "internalType": "uint256",
          "name": "",
          "type": "uint256"
        }
      ],
      "name": "Manu_ids",
      "outputs": [
        {
          "internalType": "address",
          "name": "",
          "type": "address"
        }
      ],
      "stateMutability": "view",
      "type": "function"
    },
    {
      "inputs": [
        {
          "internalType": "address",
          "name": "",
          "type": "address"
        }
      ],
      "name": "Manufacturers",
      "outputs": [
        {
          "internalType": "string",
          "name": "manuname",
          "type": "string"
        },
        {
          "internalType": "uint256",
          "name": "manuid",
          "type": "uint256"
        },
        {
          "internalType": "address payable",
          "name": "manuadd",
          "type": "address"
        },
        {
          "internalType": "uint256",
          "name": "manupincode",
          "type": "uint256"
        }
      ],
      "stateMutability": "view",
      "type": "function"
    },
    {
      "inputs": [
        {
          "internalType": "uint256",
          "name": "",
          "type": "uint256"
        }
      ],
      "name": "Shipments",
      "outputs": [
        {
          "internalType": "uint256",
          "name": "shid",
          "type": "uint256"
        },
        {
          "internalType": "uint256",
          "name": "itemcat",
          "type": "uint256"
        },
        {
          "internalType": "uint256",
          "name": "qty",
          "type": "uint256"
        },
        {
          "internalType": "uint256",
          "name": "totalamt",
          "type": "uint256"
        },
        {
          "internalType": "enum ProLine.Status",
          "name": "payment",
          "type": "uint8"
        },
        {
          "internalType": "address",
          "name": "custadr",
          "type": "address"
        },
        {
          "internalType": "address",
          "name": "manadr",
          "type": "address"
        }
      ],
      "stateMutability": "view",
      "type": "function"
    },
    {
      "inputs": [
        {
          "internalType": "uint256",
          "name": "",
          "type": "uint256"
        }
      ],
      "name": "cust_ids",
      "outputs": [
        {
          "internalType": "address",
          "name": "",
          "type": "address"
        }
      ],
      "stateMutability": "view",
      "type": "function"
    },
    {
      "inputs": [],
      "name": "customercount",
      "outputs": [
        {
          "internalType": "uint256",
          "name": "",
          "type": "uint256"
        }
      ],
      "stateMutability": "view",
      "type": "function"
    },
    {
      "inputs": [],
      "name": "govt",
      "outputs": [
        {
          "internalType": "address payable",
          "name": "",
          "type": "address"
        }
      ],
      "stateMutability": "view",
      "type": "function"
    },
    {
      "inputs": [],
      "name": "itemcount",
      "outputs": [
        {
          "internalType": "uint256",
          "name": "",
          "type": "uint256"
        }
      ],
      "stateMutability": "view",
      "type": "function"
    },
    {
      "inputs": [],
      "name": "manufacturercount",
      "outputs": [
        {
          "internalType": "uint256",
          "name": "",
          "type": "uint256"
        }
      ],
      "stateMutability": "view",
      "type": "function"
    },
    {
      "inputs": [],
      "name": "shipmentcount",
      "outputs": [
        {
          "internalType": "uint256",
          "name": "",
          "type": "uint256"
        }
      ],
      "stateMutability": "view",
      "type": "function"
    },
    {
      "inputs": [
        {
          "internalType": "string",
          "name": "_name",
          "type": "string"
        },
        {
          "internalType": "uint256",
          "name": "_pincode",
          "type": "uint256"
        }
      ],
      "name": "addManufacturer",
      "outputs": [],
      "stateMutability": "nonpayable",
      "type": "function"
    },
    {
      "inputs": [
        {
          "internalType": "string",
          "name": "_name",
          "type": "string"
        },
        {
          "internalType": "uint256",
          "name": "_pincode",
          "type": "uint256"
        }
      ],
      "name": "updateManufacturer",
      "outputs": [],
      "stateMutability": "nonpayable",
      "type": "function"
    },
    {
      "inputs": [
        {
          "internalType": "string",
          "name": "_custname",
          "type": "string"
        },
        {
          "internalType": "uint256",
          "name": "_pincode",
          "type": "uint256"
        }
      ],
      "name": "addCustomer",
      "outputs": [],
      "stateMutability": "nonpayable",
      "type": "function"
    },
    {
      "inputs": [
        {
          "internalType": "string",
          "name": "_custname",
          "type": "string"
        },
        {
          "internalType": "uint256",
          "name": "_pincode",
          "type": "uint256"
        }
      ],
      "name": "modifyCustomer",
      "outputs": [],
      "stateMutability": "nonpayable",
      "type": "function"
    },
    {
      "inputs": [
        {
          "internalType": "uint256",
          "name": "_itemtype",
          "type": "uint256"
        },
        {
          "internalType": "string",
          "name": "_description",
          "type": "string"
        },
        {
          "internalType": "uint256",
          "name": "_price",
          "type": "uint256"
        },
        {
          "internalType": "uint256",
          "name": "_gst",
          "type": "uint256"
        }
      ],
      "name": "createItems",
      "outputs": [],
      "stateMutability": "nonpayable",
      "type": "function"
    },
    {
      "inputs": [
        {
          "internalType": "uint256",
          "name": "_itemid",
          "type": "uint256"
        },
        {
          "internalType": "uint256",
          "name": "_qty",
          "type": "uint256"
        },
        {
          "internalType": "string",
          "name": "_shipstate",
          "type": "string"
        },
        {
          "internalType": "uint256",
          "name": "_totalamt",
          "type": "uint256"
        },
        {
          "internalType": "enum ProLine.Status",
          "name": "_payment",
          "type": "uint8"
        },
        {
          "internalType": "address payable",
          "name": "_manadr",
          "type": "address"
        }
      ],
      "name": "createShipment",
      "outputs": [],
      "stateMutability": "nonpayable",
      "type": "function"
    },
    {
      "inputs": [
        {
          "internalType": "uint256",
          "name": "_shipid",
          "type": "uint256"
        },
        {
          "internalType": "string",
          "name": "_shipstate",
          "type": "string"
        }
      ],
      "name": "updateShstate",
      "outputs": [],
      "stateMutability": "nonpayable",
      "type": "function"
    },
    {
      "inputs": [
        {
          "internalType": "uint256",
          "name": "_shipid",
          "type": "uint256"
        },
        {
          "internalType": "enum ProLine.Status",
          "name": "_payment",
          "type": "uint8"
        }
      ],
      "name": "updateShstatus",
      "outputs": [],
      "stateMutability": "nonpayable",
      "type": "function"
    },
    {
      "inputs": [
        {
          "internalType": "uint256",
          "name": "totamt",
          "type": "uint256"
        },
        {
          "internalType": "uint256",
          "name": "_shipid",
          "type": "uint256"
        },
        {
          "internalType": "string",
          "name": "_shipstate",
          "type": "string"
        }
      ],
      "name": "payitem",
      "outputs": [],
      "stateMutability": "payable",
      "type": "function"
    },
    {
      "inputs": [
        {
          "internalType": "uint256",
          "name": "_shipid",
          "type": "uint256"
        },
        {
          "internalType": "uint256",
          "name": "z",
          "type": "uint256"
        }
      ],
      "name": "withdrawmoney",
      "outputs": [],
      "stateMutability": "payable",
      "type": "function"
    },
    {
      "inputs": [
        {
          "internalType": "string",
          "name": "a",
          "type": "string"
        },
        {
          "internalType": "string",
          "name": "b",
          "type": "string"
        }
      ],
      "name": "compareStrings",
      "outputs": [
        {
          "internalType": "bool",
          "name": "",
          "type": "bool"
        }
      ],
      "stateMutability": "pure",
      "type": "function"
    },
    {
      "inputs": [
        {
          "internalType": "address",
          "name": "addr",
          "type": "address"
        }
      ],
      "name": "getbal",
      "outputs": [
        {
          "internalType": "uint256",
          "name": "",
          "type": "uint256"
        }
      ],
      "stateMutability": "view",
      "type": "function"
    },
    {
      "inputs": [
        {
          "internalType": "uint256",
          "name": "_shipid",
          "type": "uint256"
        }
      ],
      "name": "getshipstate",
      "outputs": [
        {
          "internalType": "string[]",
          "name": "",
          "type": "string[]"
        }
      ],
      "stateMutability": "view",
      "type": "function"
    }
  ],
  "bytecode": "0x608060405260006001556000600255600060035560006004553480156200002557600080fd5b5060405162002b5f38038062002b5f83398181016040528101906200004b9190620000a9565b806000806101000a81548173ffffffffffffffffffffffffffffffffffffffff021916908373ffffffffffffffffffffffffffffffffffffffff1602179055505062000123565b600081519050620000a38162000109565b92915050565b600060208284031215620000bc57600080fd5b6000620000cc8482850162000092565b91505092915050565b6000620000e282620000e9565b9050919050565b600073ffffffffffffffffffffffffffffffffffffffff82169050919050565b6200011481620000d5565b81146200012057600080fd5b50565b612a2c80620001336000396000f3fe60806040526004361061014b5760003560e01c806392b0b918116100b6578063bf934a901161006f578063bf934a90146104d9578063c9cb756014610502578063d9382c1b1461052b578063e2c159a714610556578063f71350f614610572578063fabc8b11146105b25761014b565b806392b0b9181461038b578063948414e6146103c857806394ef61ab146103f15780639a0dbe2414610434578063a3898c941461045f578063bed34bba1461049c5761014b565b8063464ffa6411610108578063464ffa64146102755780635256d8b1146102b25780636ac55e6a146102db5780636ace30c51461031b5780637d5188a4146103375780638202ee07146103625761014b565b8063083114131461015057806317b47cc414610179578063190dd277146101bb5780633054de46146101f85780633f8eda59146102215780634232dc021461024a575b600080fd5b34801561015c57600080fd5b506101776004803603810190610172919061222a565b6105dd565b005b34801561018557600080fd5b506101a0600480360381019061019b91906121c5565b610863565b6040516101b296959493929190612721565b60405180910390f35b3480156101c757600080fd5b506101e260048036038101906101dd91906120dc565b610957565b6040516101ef9190612706565b60405180910390f35b34801561020457600080fd5b5061021f600480360381019061021a9190612171565b610978565b005b34801561022d57600080fd5b506102486004803603810190610243919061227e565b610b4a565b005b34801561025657600080fd5b5061025f610c5c565b60405161026c9190612706565b60405180910390f35b34801561028157600080fd5b5061029c600480360381019061029791906121c5565b610c62565b6040516102a99190612601565b60405180910390f35b3480156102be57600080fd5b506102d960048036038101906102d4919061239c565b610d61565b005b3480156102e757600080fd5b5061030260048036038101906102fd91906120dc565b610fac565b60405161031294939291906126ba565b60405180910390f35b610335600480360381019061033091906122f9565b611094565b005b34801561034357600080fd5b5061034c6116be565b6040516103599190612706565b60405180910390f35b34801561036e57600080fd5b5061038960048036038101906103849190612171565b6116c4565b005b34801561039757600080fd5b506103b260048036038101906103ad91906121c5565b6117e7565b6040516103bf91906125cb565b60405180910390f35b3480156103d457600080fd5b506103ef60048036038101906103ea9190612171565b61181a565b005b3480156103fd57600080fd5b50610418600480360381019061041391906121c5565b61193d565b60405161042b9796959493929190612789565b60405180910390f35b34801561044057600080fd5b506104496119cc565b6040516104569190612706565b60405180910390f35b34801561046b57600080fd5b50610486600480360381019061048191906121c5565b6119d2565b60405161049391906125cb565b60405180910390f35b3480156104a857600080fd5b506104c360048036038101906104be9190612105565b611a05565b6040516104d09190612623565b60405180910390f35b3480156104e557600080fd5b5061050060048036038101906104fb91906121ee565b611a5e565b005b34801561050e57600080fd5b5061052960048036038101906105249190612171565b611adf565b005b34801561053757600080fd5b50610540611cb1565b60405161054d91906125e6565b60405180910390f35b610570600480360381019061056b9190612335565b611cd5565b005b34801561057e57600080fd5b50610599600480360381019061059491906120dc565b611de1565b6040516105a9949392919061266e565b60405180910390f35b3480156105be57600080fd5b506105c7611ec9565b6040516105d49190612706565b60405180910390f35b61061c816040518060400160405280600981526020017f43616e63656c6c65640000000000000000000000000000000000000000000000815250611a05565b156106ac57600a600083815260200190815260200160002060030181908060018154018082558091505060019003906000526020600020016000909190919091509080519060200190610670929190611ecf565b50817fadb93919eb12af7378baa0b13b65539dad2c3711dc40e31d3480c260fdf9ea0f82426040516106a392919061263e565b60405180910390a25b6000600a60008481526020019081526020016000206003018054905090506107cf600a600085815260200190815260200160002060030160018303815481106106f157fe5b906000526020600020018054600181600116156101000203166002900480601f01602080910402602001604051908101604052809291908181526020018280546001816001161561010002031660029004801561078f5780601f106107645761010080835404028352916020019161078f565b820191906000526020600020905b81548152906001019060200180831161077257829003601f168201915b50505050506040518060400160405280600981526020017f43616e63656c6c65640000000000000000000000000000000000000000000000815250611a05565b61085e57600a600084815260200190815260200160002060030182908060018154018082558091505060019003906000526020600020016000909190919091509080519060200190610822929190611ecf565b50827fadb93919eb12af7378baa0b13b65539dad2c3711dc40e31d3480c260fdf9ea0f834260405161085592919061263e565b60405180910390a25b505050565b60096020528060005260406000206000915090508060000154908060010154908060020160009054906101000a900473ffffffffffffffffffffffffffffffffffffffff1690806003018054600181600116156101000203166002900480601f0160208091040260200160405190810160405280929190818152602001828054600181600116156101000203166002900480156109415780601f1061091657610100808354040283529160200191610941565b820191906000526020600020905b81548152906001019060200180831161092457829003601f168201915b5050505050908060040154908060050154905086565b60008173ffffffffffffffffffffffffffffffffffffffff16319050919050565b60016000815480929190600101919050555081600560003373ffffffffffffffffffffffffffffffffffffffff1673ffffffffffffffffffffffffffffffffffffffff16815260200190815260200160002060000190805190602001906109e0929190611ecf565b50600154600560003373ffffffffffffffffffffffffffffffffffffffff1673ffffffffffffffffffffffffffffffffffffffff1681526020019081526020016000206001018190555033600560003373ffffffffffffffffffffffffffffffffffffffff1673ffffffffffffffffffffffffffffffffffffffff16815260200190815260200160002060020160006101000a81548173ffffffffffffffffffffffffffffffffffffffff021916908373ffffffffffffffffffffffffffffffffffffffff16021790555080600560003373ffffffffffffffffffffffffffffffffffffffff1673ffffffffffffffffffffffffffffffffffffffff168152602001908152602001600020600301819055503360066000600154815260200190815260200160002060006101000a81548173ffffffffffffffffffffffffffffffffffffffff021916908373ffffffffffffffffffffffffffffffffffffffff1602179055505050565b600360008154809291906001019190505550600354600960006003548152602001908152602001600020600001819055508360096000600354815260200190815260200160002060010181905550826009600060035481526020019081526020016000206003019080519060200190610bc4929190611ecf565b50816009600060035481526020019081526020016000206004018190555080600960006003548152602001908152602001600020600501819055503360096000600354815260200190815260200160002060020160006101000a81548173ffffffffffffffffffffffffffffffffffffffff021916908373ffffffffffffffffffffffffffffffffffffffff16021790555050505050565b60035481565b6060600a6000838152602001908152602001600020600301805480602002602001604051908101604052809291908181526020016000905b82821015610d56578382906000526020600020018054600181600116156101000203166002900480601f016020809104026020016040519081016040528092919081815260200182805460018160011615610100020316600290048015610d425780601f10610d1757610100808354040283529160200191610d42565b820191906000526020600020905b815481529060010190602001808311610d2557829003601f168201915b505050505081526020019060010190610c9a565b505050509050919050565b600460008154809291906001019190505550600454600a600060045481526020019081526020016000206000018190555085600a600060045481526020019081526020016000206001018190555084600a6000600454815260200190815260200160002060020181905550600a6000600454815260200190815260200160002060030184908060018154018082558091505060019003906000526020600020016000909190919091509080519060200190610e1d929190611ecf565b5081600a6000600454815260200190815260200160002060050160006101000a81548160ff02191690836002811115610e5257fe5b021790555082600a600060045481526020019081526020016000206004018190555033600a6000600454815260200190815260200160002060050160016101000a81548173ffffffffffffffffffffffffffffffffffffffff021916908373ffffffffffffffffffffffffffffffffffffffff16021790555080600a6000600454815260200190815260200160002060060160006101000a81548173ffffffffffffffffffffffffffffffffffffffff021916908373ffffffffffffffffffffffffffffffffffffffff1602179055506004547fadb93919eb12af7378baa0b13b65539dad2c3711dc40e31d3480c260fdf9ea0f8542604051610f5692919061263e565b60405180910390a2816002811115610f6a57fe5b6004547ff8c7338d0a4a15ab7210e0c3aabe2b07be7f84650fba75bd3f040f6d82431fad42604051610f9c9190612706565b60405180910390a3505050505050565b6007602052806000526040600020600091509050806000018054600181600116156101000203166002900480601f0160208091040260200160405190810160405280929190818152602001828054600181600116156101000203166002900480156110585780601f1061102d57610100808354040283529160200191611058565b820191906000526020600020905b81548152906001019060200180831161103b57829003601f168201915b5050505050908060010154908060020160009054906101000a900473ffffffffffffffffffffffffffffffffffffffff16908060030154905084565b61109c611f4f565b600a60008481526020019081526020016000206040518061010001604052908160008201548152602001600182015481526020016002820154815260200160038201805480602002602001604051908101604052809291908181526020016000905b828210156111ba578382906000526020600020018054600181600116156101000203166002900480601f0160208091040260200160405190810160405280929190818152602001828054600181600116156101000203166002900480156111a65780601f1061117b576101008083540402835291602001916111a6565b820191906000526020600020905b81548152906001019060200180831161118957829003601f168201915b5050505050815260200190600101906110fe565b505050508152602001600482015481526020016005820160009054906101000a900460ff1660028111156111ea57fe5b60028111156111f557fe5b81526020016005820160019054906101000a900473ffffffffffffffffffffffffffffffffffffffff1673ffffffffffffffffffffffffffffffffffffffff1673ffffffffffffffffffffffffffffffffffffffff1681526020016006820160009054906101000a900473ffffffffffffffffffffffffffffffffffffffff1673ffffffffffffffffffffffffffffffffffffffff1673ffffffffffffffffffffffffffffffffffffffff168152505090506112af611fcb565b60096000836020015181526020019081526020016000206040518060c001604052908160008201548152602001600182015481526020016002820160009054906101000a900473ffffffffffffffffffffffffffffffffffffffff1673ffffffffffffffffffffffffffffffffffffffff1673ffffffffffffffffffffffffffffffffffffffff168152602001600382018054600181600116156101000203166002900480601f0160208091040260200160405190810160405280929190818152602001828054600181600116156101000203166002900480156113d45780601f106113a9576101008083540402835291602001916113d4565b820191906000526020600020905b8154815290600101906020018083116113b757829003601f168201915b50505050508152602001600482015481526020016005820154815250509050606060028414156114905760008360c0015190508073ffffffffffffffffffffffffffffffffffffffff166108fc85608001519081150290604051600060405180830381858888f19350505050158015611451573d6000803e3d6000fd5b506040518060400160405280600981526020017f43616e63656c6c656400000000000000000000000000000000000000000000008152509150506115b1565b60018414156115b057600060648360a00151856080015102816114af57fe5b049050600081856080015103905060008054906101000a900473ffffffffffffffffffffffffffffffffffffffff1673ffffffffffffffffffffffffffffffffffffffff166108fc839081150290604051600060405180830381858888f19350505050158015611523573d6000803e3d6000fd5b5060008560e0015190508073ffffffffffffffffffffffffffffffffffffffff166108fc839081150290604051600060405180830381858888f19350505050158015611573573d6000803e3d6000fd5b506040518060400160405280600981526020017f44656c697665726564000000000000000000000000000000000000000000000081525093505050505b5b600a600086815260200190815260200160002060030181908060018154018082558091505060019003906000526020600020016000909190919091509080519060200190611600929190611ecf565b50847fadb93919eb12af7378baa0b13b65539dad2c3711dc40e31d3480c260fdf9ea0f824260405161163392919061263e565b60405180910390a26002600a600087815260200190815260200160002060050160006101000a81548160ff0219169083600281111561166e57fe5b021790555060028081111561167f57fe5b857ff8c7338d0a4a15ab7210e0c3aabe2b07be7f84650fba75bd3f040f6d82431fad426040516116af9190612706565b60405180910390a35050505050565b60015481565b81600760003373ffffffffffffffffffffffffffffffffffffffff1673ffffffffffffffffffffffffffffffffffffffff168152602001908152602001600020600001908051906020019061171a929190611ecf565b5033600760003373ffffffffffffffffffffffffffffffffffffffff1673ffffffffffffffffffffffffffffffffffffffff16815260200190815260200160002060020160006101000a81548173ffffffffffffffffffffffffffffffffffffffff021916908373ffffffffffffffffffffffffffffffffffffffff16021790555080600760003373ffffffffffffffffffffffffffffffffffffffff1673ffffffffffffffffffffffffffffffffffffffff168152602001908152602001600020600301819055505050565b60086020528060005260406000206000915054906101000a900473ffffffffffffffffffffffffffffffffffffffff1681565b81600560003373ffffffffffffffffffffffffffffffffffffffff1673ffffffffffffffffffffffffffffffffffffffff1681526020019081526020016000206000019080519060200190611870929190611ecf565b5033600560003373ffffffffffffffffffffffffffffffffffffffff1673ffffffffffffffffffffffffffffffffffffffff16815260200190815260200160002060020160006101000a81548173ffffffffffffffffffffffffffffffffffffffff021916908373ffffffffffffffffffffffffffffffffffffffff16021790555080600560003373ffffffffffffffffffffffffffffffffffffffff1673ffffffffffffffffffffffffffffffffffffffff168152602001908152602001600020600301819055505050565b600a6020528060005260406000206000915090508060000154908060010154908060020154908060040154908060050160009054906101000a900460ff16908060050160019054906101000a900473ffffffffffffffffffffffffffffffffffffffff16908060060160009054906101000a900473ffffffffffffffffffffffffffffffffffffffff16905087565b60045481565b60066020528060005260406000206000915054906101000a900473ffffffffffffffffffffffffffffffffffffffff1681565b600081604051602001611a1891906125b4565b6040516020818303038152906040528051906020012083604051602001611a3f91906125b4565b6040516020818303038152906040528051906020012014905092915050565b80600a6000600454815260200190815260200160002060050160006101000a81548160ff02191690836002811115611a9257fe5b0217905550806002811115611aa357fe5b827ff8c7338d0a4a15ab7210e0c3aabe2b07be7f84650fba75bd3f040f6d82431fad42604051611ad39190612706565b60405180910390a35050565b60026000815480929190600101919050555081600760003373ffffffffffffffffffffffffffffffffffffffff1673ffffffffffffffffffffffffffffffffffffffff1681526020019081526020016000206000019080519060200190611b47929190611ecf565b50600254600760003373ffffffffffffffffffffffffffffffffffffffff1673ffffffffffffffffffffffffffffffffffffffff1681526020019081526020016000206001018190555033600760003373ffffffffffffffffffffffffffffffffffffffff1673ffffffffffffffffffffffffffffffffffffffff16815260200190815260200160002060020160006101000a81548173ffffffffffffffffffffffffffffffffffffffff021916908373ffffffffffffffffffffffffffffffffffffffff16021790555080600760003373ffffffffffffffffffffffffffffffffffffffff1673ffffffffffffffffffffffffffffffffffffffff168152602001908152602001600020600301819055503360086000600254815260200190815260200160002060006101000a81548173ffffffffffffffffffffffffffffffffffffffff021916908373ffffffffffffffffffffffffffffffffffffffff1602179055505050565b60008054906101000a900473ffffffffffffffffffffffffffffffffffffffff1681565b6001600a600084815260200190815260200160002060050160006101000a81548160ff02191690836002811115611d0857fe5b021790555060016002811115611d1a57fe5b827ff8c7338d0a4a15ab7210e0c3aabe2b07be7f84650fba75bd3f040f6d82431fad42604051611d4a9190612706565b60405180910390a3600a600083815260200190815260200160002060030181908060018154018082558091505060019003906000526020600020016000909190919091509080519060200190611da1929190611ecf565b50817fadb93919eb12af7378baa0b13b65539dad2c3711dc40e31d3480c260fdf9ea0f8242604051611dd492919061263e565b60405180910390a2505050565b6005602052806000526040600020600091509050806000018054600181600116156101000203166002900480601f016020809104026020016040519081016040528092919081815260200182805460018160011615610100020316600290048015611e8d5780601f10611e6257610100808354040283529160200191611e8d565b820191906000526020600020905b815481529060010190602001808311611e7057829003601f168201915b5050505050908060010154908060020160009054906101000a900473ffffffffffffffffffffffffffffffffffffffff16908060030154905084565b60025481565b828054600181600116156101000203166002900490600052602060002090601f016020900481019282601f10611f1057805160ff1916838001178555611f3e565b82800160010185558215611f3e579182015b82811115611f3d578251825591602001919060010190611f22565b5b509050611f4b9190612017565b5090565b604051806101000160405280600081526020016000815260200160008152602001606081526020016000815260200160006002811115611f8b57fe5b8152602001600073ffffffffffffffffffffffffffffffffffffffff168152602001600073ffffffffffffffffffffffffffffffffffffffff1681525090565b6040518060c001604052806000815260200160008152602001600073ffffffffffffffffffffffffffffffffffffffff1681526020016060815260200160008152602001600081525090565b5b80821115612030576000816000905550600101612018565b5090565b600081359050612043816129a1565b92915050565b600081359050612058816129b8565b92915050565b60008135905061206d816129cf565b92915050565b600082601f83011261208457600080fd5b813561209761209282612825565b6127f8565b915080825260208301602083018583830111156120b357600080fd5b6120be838284612941565b50505092915050565b6000813590506120d6816129df565b92915050565b6000602082840312156120ee57600080fd5b60006120fc84828501612034565b91505092915050565b6000806040838503121561211857600080fd5b600083013567ffffffffffffffff81111561213257600080fd5b61213e85828601612073565b925050602083013567ffffffffffffffff81111561215b57600080fd5b61216785828601612073565b9150509250929050565b6000806040838503121561218457600080fd5b600083013567ffffffffffffffff81111561219e57600080fd5b6121aa85828601612073565b92505060206121bb858286016120c7565b9150509250929050565b6000602082840312156121d757600080fd5b60006121e5848285016120c7565b91505092915050565b6000806040838503121561220157600080fd5b600061220f858286016120c7565b92505060206122208582860161205e565b9150509250929050565b6000806040838503121561223d57600080fd5b600061224b858286016120c7565b925050602083013567ffffffffffffffff81111561226857600080fd5b61227485828601612073565b9150509250929050565b6000806000806080858703121561229457600080fd5b60006122a2878288016120c7565b945050602085013567ffffffffffffffff8111156122bf57600080fd5b6122cb87828801612073565b93505060406122dc878288016120c7565b92505060606122ed878288016120c7565b91505092959194509250565b6000806040838503121561230c57600080fd5b600061231a858286016120c7565b925050602061232b858286016120c7565b9150509250929050565b60008060006060848603121561234a57600080fd5b6000612358868287016120c7565b9350506020612369868287016120c7565b925050604084013567ffffffffffffffff81111561238657600080fd5b61239286828701612073565b9150509250925092565b60008060008060008060c087890312156123b557600080fd5b60006123c389828a016120c7565b96505060206123d489828a016120c7565b955050604087013567ffffffffffffffff8111156123f157600080fd5b6123fd89828a01612073565b945050606061240e89828a016120c7565b935050608061241f89828a0161205e565b92505060a061243089828a01612049565b9150509295509295509295565b60006124498383612502565b905092915050565b61245a816128d4565b82525050565b612469816128c2565b82525050565b600061247a82612861565b6124848185612884565b93508360208202850161249685612851565b8060005b858110156124d257848403895281516124b3858261243d565b94506124be83612877565b925060208a0199505060018101905061249a565b50829750879550505050505092915050565b6124ed816128e6565b82525050565b6124fc8161292f565b82525050565b600061250d8261286c565b6125178185612895565b9350612527818560208601612950565b61253081612983565b840191505092915050565b60006125468261286c565b61255081856128a6565b9350612560818560208601612950565b61256981612983565b840191505092915050565b600061257f8261286c565b61258981856128b7565b9350612599818560208601612950565b80840191505092915050565b6125ae81612925565b82525050565b60006125c08284612574565b915081905092915050565b60006020820190506125e06000830184612460565b92915050565b60006020820190506125fb6000830184612451565b92915050565b6000602082019050818103600083015261261b818461246f565b905092915050565b600060208201905061263860008301846124e4565b92915050565b60006040820190508181036000830152612658818561253b565b905061266760208301846125a5565b9392505050565b60006080820190508181036000830152612688818761253b565b905061269760208301866125a5565b6126a46040830185612451565b6126b160608301846125a5565b95945050505050565b600060808201905081810360008301526126d4818761253b565b90506126e360208301866125a5565b6126f06040830185612460565b6126fd60608301846125a5565b95945050505050565b600060208201905061271b60008301846125a5565b92915050565b600060c08201905061273660008301896125a5565b61274360208301886125a5565b6127506040830187612460565b8181036060830152612762818661253b565b905061277160808301856125a5565b61277e60a08301846125a5565b979650505050505050565b600060e08201905061279e600083018a6125a5565b6127ab60208301896125a5565b6127b860408301886125a5565b6127c560608301876125a5565b6127d260808301866124f3565b6127df60a0830185612460565b6127ec60c0830184612460565b98975050505050505050565b6000604051905081810181811067ffffffffffffffff8211171561281b57600080fd5b8060405250919050565b600067ffffffffffffffff82111561283c57600080fd5b601f19601f8301169050602081019050919050565b6000819050602082019050919050565b600081519050919050565b600081519050919050565b6000602082019050919050565b600082825260208201905092915050565b600082825260208201905092915050565b600082825260208201905092915050565b600081905092915050565b60006128cd82612905565b9050919050565b60006128df82612905565b9050919050565b60008115159050919050565b600081905061290082612994565b919050565b600073ffffffffffffffffffffffffffffffffffffffff82169050919050565b6000819050919050565b600061293a826128f2565b9050919050565b82818337600083830152505050565b60005b8381101561296e578082015181840152602081019050612953565b8381111561297d576000848401525b50505050565b6000601f19601f8301169050919050565b6003811061299e57fe5b50565b6129aa816128c2565b81146129b557600080fd5b50565b6129c1816128d4565b81146129cc57600080fd5b50565b600381106129dc57600080fd5b50565b6129e881612925565b81146129f357600080fd5b5056fea2646970667358221220bd98d74fea3d0ad827bc3a8527cdd733a6096f5ede700dc78d09d174a897371264736f6c634300060c0033",
  "immutableReferences": {},
  "source": "pragma solidity ^0.6.0;\r\npragma experimental ABIEncoderV2;\r\n\r\n\r\ncontract ProLine{\r\n    \r\n    address payable public govt;\r\n    constructor(address payable _govt)public{\r\n        govt = _govt;\r\n    }\r\n   \r\n    enum Status {Notpaid, inSc, received}\r\n    uint public manufacturercount = 0;\r\n    uint public customercount = 0;\r\n    uint public itemcount = 0;\r\n    uint public shipmentcount = 0;\r\n    \r\n    event processchange(uint indexed ship_id,string shstate,uint times);\r\n    event processpay(uint indexed ship_id,Status indexed pay,uint times);\r\n    \r\n    struct Manufacturer{\r\n        string manuname;\r\n        uint manuid;\r\n        address payable manuadd;\r\n        uint manupincode;\r\n    }\r\n    \r\n    mapping(address  => Manufacturer) public Manufacturers;\r\n    mapping(uint => address ) public Manu_ids;\r\n    \r\n    struct Customer{\r\n        string custname;\r\n        uint custid;\r\n        address custadd;\r\n        uint custpincode;\r\n    }\r\n    \r\n    mapping(address => Customer) public Customers;\r\n    mapping(uint => address ) public cust_ids;\r\n    \r\n    \r\n    struct Item {\r\n        uint itemid;\r\n        uint itemtype;\r\n        address manadr;\r\n        string description;\r\n        uint price;\r\n        uint gst;\r\n    }\r\n    \r\n    struct Shipment{\r\n        uint shid;\r\n        uint itemcat;\r\n        uint qty;\r\n        string[] shipstate;\r\n        uint totalamt;\r\n        Status payment;\r\n        address custadr;\r\n        address manadr;\r\n    }\r\n    \r\n    mapping(uint => Item) public Items;\r\n\r\n    mapping(uint => Shipment) public Shipments;\r\n    \r\n    function addManufacturer(string memory _name,uint _pincode)public {\r\n       manufacturercount++;\r\n       Manufacturers[msg.sender].manuname = _name;\r\n       Manufacturers[msg.sender].manuid = manufacturercount;\r\n       Manufacturers[msg.sender].manuadd = msg.sender;\r\n       Manufacturers[msg.sender].manupincode = _pincode;\r\n       Manu_ids[manufacturercount] = msg.sender;\r\n\r\n    }\r\n    function updateManufacturer(string memory _name,uint _pincode)public {\r\n       \r\n       Manufacturers[msg.sender].manuname = _name;\r\n       Manufacturers[msg.sender].manuadd = msg.sender;\r\n       Manufacturers[msg.sender].manupincode = _pincode;\r\n    }\r\n    \r\n    function addCustomer(string memory _custname,uint _pincode)public{\r\n        customercount++;\r\n        Customers[msg.sender].custname = _custname;\r\n        Customers[msg.sender].custid = customercount;\r\n        Customers[msg.sender].custadd = msg.sender;\r\n        Customers[msg.sender].custpincode = _pincode;\r\n        cust_ids[customercount] = msg.sender;\r\n    }\r\n    \r\n    function modifyCustomer(string memory _custname,uint _pincode)public{\r\n        Customers[msg.sender].custname = _custname;\r\n        Customers[msg.sender].custadd = msg.sender;\r\n        Customers[msg.sender].custpincode = _pincode;\r\n    }\r\n    \r\n\r\n    \r\n    function createItems(uint _itemtype,string memory _description,uint _price,uint _gst)public{\r\n        itemcount++;\r\n        Items[itemcount].itemid = itemcount;\r\n        Items[itemcount].itemtype = _itemtype;\r\n        Items[itemcount].description = _description;\r\n        Items[itemcount].price = _price;\r\n        Items[itemcount].gst = _gst;\r\n        Items[itemcount].manadr = msg.sender;\r\n \r\n    }\r\n    \r\n    function createShipment(uint _itemid,uint _qty,string memory _shipstate,uint _totalamt,Status _payment,address payable _manadr)public{\r\n        shipmentcount++;\r\n        Shipments[shipmentcount].shid = shipmentcount;\r\n        Shipments[shipmentcount].itemcat =  _itemid;\r\n        Shipments[shipmentcount].qty =  _qty;\r\n        Shipments[shipmentcount].shipstate.push(_shipstate);\r\n        Shipments[shipmentcount].payment=  _payment;\r\n        Shipments[shipmentcount].totalamt =  _totalamt;\r\n        Shipments[shipmentcount].custadr =  msg.sender;\r\n        Shipments[shipmentcount].manadr =  _manadr;\r\n        emit processchange(shipmentcount,_shipstate,now);\r\n        emit processpay(shipmentcount,_payment,now);\r\n        \r\n        }\r\n    function updateShstate(uint _shipid,string memory _shipstate)public{\r\n       \r\n       if(compareStrings(_shipstate,\"Cancelled\")){\r\n           Shipments[_shipid].shipstate.push(_shipstate);\r\n           emit processchange(_shipid,_shipstate,now);\r\n       }\r\n       uint len = Shipments[_shipid].shipstate.length;\r\n       if(!(compareStrings(Shipments[_shipid].shipstate[(len-1)], \"Cancelled\"))){\r\n        Shipments[_shipid].shipstate.push(_shipstate);\r\n        emit processchange(_shipid,_shipstate,now);\r\n       }\r\n    }\r\n    \r\n    function updateShstatus(uint _shipid,Status _payment)public{\r\n        Shipments[shipmentcount].payment=  _payment;\r\n        emit processpay(_shipid,_payment,now);\r\n    }\r\n    \r\n    function payitem(uint totamt,uint _shipid,string memory _shipstate)public payable {\r\n        //require(msg.value == totamt,\"less money\");\r\n        Shipments[_shipid].payment = Status.inSc;\r\n        emit processpay(_shipid,Status.inSc,now);\r\n        Shipments[_shipid].shipstate.push(_shipstate);\r\n        emit processchange(_shipid,_shipstate,now);\r\n\r\n        }\r\n        \r\n    function withdrawmoney(uint _shipid,uint z)public payable{\r\n        Shipment memory y = Shipments[_shipid];\r\n        Item memory x = Items[y.itemcat];\r\n        string memory _shipst;\r\n        if(z == 2){\r\n            address payable cus = payable(y.custadr);\r\n            cus.transfer(y.totalamt);\r\n            _shipst = \"Cancelled\";\r\n            \r\n        }\r\n        else if(z == 1){\r\n        uint govtmoney = (y.totalamt*x.gst)/100;\r\n        uint manumoney = y.totalamt - govtmoney;\r\n        govt.transfer(govtmoney);\r\n        address payable mann = payable(y.manadr);\r\n        mann.transfer(manumoney);\r\n        _shipst = \"Delivered\";\r\n        }    \r\n        Shipments[_shipid].shipstate.push(_shipst);\r\n        emit processchange(_shipid,_shipst,now);\r\n        Shipments[_shipid].payment = Status.received;\r\n        emit processpay(_shipid,Status.received,now);\r\n            \r\n    }\r\n     function compareStrings(string memory a, string memory b) public pure returns (bool) {\r\n    return (keccak256(abi.encodePacked((a))) == keccak256(abi.encodePacked((b))));\r\n}\r\n\r\n    function getbal(address addr)public view returns(uint){\r\n        return (addr).balance;\r\n    }\r\n    \r\n    \r\n     function getshipstate(uint _shipid)public view returns (string[] memory){\r\n        return Shipments[_shipid].shipstate;\r\n    }\r\n    \r\n}",
  "sourcePath": "C:\\Users\\SRUTI\\Desktop\\Process_Lineage\\contracts\\ProLine.sol",
  "compiler": {
    "name": "solc",
    "version": "0.6.12+commit.27d51765.Emscripten.clang"
  },
  "schemaVersion": "3.4.10",
  "updatedAt": "2022-12-29T18:19:11.235Z",
  "devdoc": {
    "kind": "dev",
    "methods": {},
    "version": 1
  },
  "userdoc": {
    "kind": "user",
    "methods": {},
    "version": 1
  }
}